{
  "contractName": "Wormhole",
  "abi": [
    {
      "inputs": [
        {
          "components": [
            {
              "internalType": "address[]",
              "name": "keys",
              "type": "address[]"
            },
            {
              "internalType": "uint32",
              "name": "expiration_time",
              "type": "uint32"
            }
          ],
          "internalType": "struct Wormhole.GuardianSet",
          "name": "initial_guardian_set",
          "type": "tuple"
        },
        {
          "internalType": "address",
          "name": "wrapped_asset_master",
          "type": "address"
        },
        {
          "internalType": "uint32",
          "name": "_guardian_set_expirity",
          "type": "uint32"
        }
      ],
      "stateMutability": "nonpayable",
      "type": "constructor"
    },
    {
      "anonymous": false,
      "inputs": [
        {
          "indexed": false,
          "internalType": "uint32",
          "name": "oldGuardianIndex",
          "type": "uint32"
        },
        {
          "indexed": false,
          "internalType": "uint32",
          "name": "newGuardianIndex",
          "type": "uint32"
        }
      ],
      "name": "LogGuardianSetChanged",
      "type": "event"
    },
    {
      "anonymous": false,
      "inputs": [
        {
          "indexed": false,
          "internalType": "uint8",
          "name": "target_chain",
          "type": "uint8"
        },
        {
          "indexed": false,
          "internalType": "uint8",
          "name": "token_chain",
          "type": "uint8"
        },
        {
          "indexed": false,
          "internalType": "uint8",
          "name": "token_decimals",
          "type": "uint8"
        },
        {
          "indexed": true,
          "internalType": "bytes32",
          "name": "token",
          "type": "bytes32"
        },
        {
          "indexed": true,
          "internalType": "bytes32",
          "name": "sender",
          "type": "bytes32"
        },
        {
          "indexed": false,
          "internalType": "bytes32",
          "name": "recipient",
          "type": "bytes32"
        },
        {
          "indexed": false,
          "internalType": "uint256",
          "name": "amount",
          "type": "uint256"
        },
        {
          "indexed": false,
          "internalType": "uint32",
          "name": "nonce",
          "type": "uint32"
        }
      ],
      "name": "LogTokensLocked",
      "type": "event"
    },
    {
      "stateMutability": "payable",
      "type": "fallback"
    },
    {
      "inputs": [
        {
          "internalType": "bytes32",
          "name": "",
          "type": "bytes32"
        }
      ],
      "name": "consumedVAAs",
      "outputs": [
        {
          "internalType": "bool",
          "name": "",
          "type": "bool"
        }
      ],
      "stateMutability": "view",
      "type": "function"
    },
    {
      "inputs": [],
      "name": "guardian_set_expirity",
      "outputs": [
        {
          "internalType": "uint32",
          "name": "",
          "type": "uint32"
        }
      ],
      "stateMutability": "view",
      "type": "function"
    },
    {
      "inputs": [],
      "name": "guardian_set_index",
      "outputs": [
        {
          "internalType": "uint32",
          "name": "",
          "type": "uint32"
        }
      ],
      "stateMutability": "view",
      "type": "function"
    },
    {
      "inputs": [
        {
          "internalType": "uint32",
          "name": "",
          "type": "uint32"
        }
      ],
      "name": "guardian_sets",
      "outputs": [
        {
          "internalType": "uint32",
          "name": "expiration_time",
          "type": "uint32"
        }
      ],
      "stateMutability": "view",
      "type": "function"
    },
    {
      "inputs": [
        {
          "internalType": "address",
          "name": "",
          "type": "address"
        }
      ],
      "name": "isWrappedAsset",
      "outputs": [
        {
          "internalType": "bool",
          "name": "",
          "type": "bool"
        }
      ],
      "stateMutability": "view",
      "type": "function"
    },
    {
      "inputs": [],
      "name": "wrappedAssetMaster",
      "outputs": [
        {
          "internalType": "address",
          "name": "",
          "type": "address"
        }
      ],
      "stateMutability": "view",
      "type": "function"
    },
    {
      "inputs": [
        {
          "internalType": "bytes32",
          "name": "",
          "type": "bytes32"
        }
      ],
      "name": "wrappedAssets",
      "outputs": [
        {
          "internalType": "address",
          "name": "",
          "type": "address"
        }
      ],
      "stateMutability": "view",
      "type": "function"
    },
    {
      "stateMutability": "payable",
      "type": "receive"
    },
    {
      "inputs": [
        {
          "internalType": "uint32",
          "name": "idx",
          "type": "uint32"
        }
      ],
      "name": "getGuardianSet",
      "outputs": [
        {
          "components": [
            {
              "internalType": "address[]",
              "name": "keys",
              "type": "address[]"
            },
            {
              "internalType": "uint32",
              "name": "expiration_time",
              "type": "uint32"
            }
          ],
          "internalType": "struct Wormhole.GuardianSet",
          "name": "gs",
          "type": "tuple"
        }
      ],
      "stateMutability": "view",
      "type": "function"
    },
    {
      "inputs": [
        {
          "internalType": "bytes",
          "name": "vaa",
          "type": "bytes"
        }
      ],
      "name": "submitVAA",
      "outputs": [],
      "stateMutability": "nonpayable",
      "type": "function"
    },
    {
      "inputs": [
        {
          "internalType": "bytes",
          "name": "vaa",
          "type": "bytes"
        }
      ],
      "name": "parseAndVerifyVAA",
      "outputs": [
        {
          "components": [
            {
              "internalType": "uint8",
              "name": "version",
              "type": "uint8"
            },
            {
              "internalType": "bytes32",
              "name": "hash",
              "type": "bytes32"
            },
            {
              "internalType": "uint32",
              "name": "guardian_set_index",
              "type": "uint32"
            },
            {
              "internalType": "uint32",
              "name": "timestamp",
              "type": "uint32"
            },
            {
              "internalType": "uint8",
              "name": "action",
              "type": "uint8"
            },
            {
              "internalType": "bytes",
              "name": "payload",
              "type": "bytes"
            }
          ],
          "internalType": "struct Wormhole.ParsedVAA",
          "name": "parsed_vaa",
          "type": "tuple"
        }
      ],
      "stateMutability": "view",
      "type": "function"
    },
    {
      "inputs": [
        {
          "internalType": "address",
          "name": "asset",
          "type": "address"
        },
        {
          "internalType": "uint256",
          "name": "amount",
          "type": "uint256"
        },
        {
          "internalType": "bytes32",
          "name": "recipient",
          "type": "bytes32"
        },
        {
          "internalType": "uint8",
          "name": "target_chain",
          "type": "uint8"
        },
        {
          "internalType": "uint32",
          "name": "nonce",
          "type": "uint32"
        },
        {
          "internalType": "bool",
          "name": "refund_dust",
          "type": "bool"
        }
      ],
      "name": "lockAssets",
      "outputs": [],
      "stateMutability": "nonpayable",
      "type": "function"
    },
    {
      "inputs": [
        {
          "internalType": "bytes32",
          "name": "recipient",
          "type": "bytes32"
        },
        {
          "internalType": "uint8",
          "name": "target_chain",
          "type": "uint8"
        },
        {
          "internalType": "uint32",
          "name": "nonce",
          "type": "uint32"
        }
      ],
      "name": "lockETH",
      "outputs": [],
      "stateMutability": "payable",
      "type": "function"
    }
  ],
  "bytecode": "0x60806040526002600160146101000a81548160ff021916908360ff1602179055503480156200002d57600080fd5b50604051620044543803806200445483398181016040528101906200005391906200033e565b600160008190555082600260008063ffffffff1681526020019081526020016000206000820151816000019080519060200190620000939291906200014b565b5060208201518160010160006101000a81548163ffffffff021916908363ffffffff1602179055509050506000600360006101000a81548163ffffffff021916908363ffffffff16021790555080600360046101000a81548163ffffffff021916908363ffffffff16021790555081600160006101000a81548173ffffffffffffffffffffffffffffffffffffffff021916908373ffffffffffffffffffffffffffffffffffffffff1602179055505050506200047c565b828054828255906000526020600020908101928215620001c7579160200282015b82811115620001c65782518260006101000a81548173ffffffffffffffffffffffffffffffffffffffff021916908373ffffffffffffffffffffffffffffffffffffffff160217905550916020019190600101906200016c565b5b509050620001d69190620001da565b5090565b5b808211156200021357600081816101000a81549073ffffffffffffffffffffffffffffffffffffffff021916905550600101620001db565b5090565b600081519050620002288162000448565b92915050565b600082601f8301126200024057600080fd5b8151620002576200025182620003db565b620003ad565b915081818352602084019350602081019050838560208402820111156200027d57600080fd5b60005b83811015620002b1578162000296888262000217565b84526020840193506020830192505060018101905062000280565b5050505092915050565b600060408284031215620002ce57600080fd5b620002da6040620003ad565b9050600082015167ffffffffffffffff811115620002f757600080fd5b62000305848285016200022e565b60008301525060206200031b8482850162000327565b60208301525092915050565b600081519050620003388162000462565b92915050565b6000806000606084860312156200035457600080fd5b600084015167ffffffffffffffff8111156200036f57600080fd5b6200037d86828701620002bb565b9350506020620003908682870162000217565b9250506040620003a38682870162000327565b9150509250925092565b6000604051905081810181811067ffffffffffffffff82111715620003d157600080fd5b8060405250919050565b600067ffffffffffffffff821115620003f357600080fd5b602082029050602081019050919050565b6000620004118262000418565b9050919050565b600073ffffffffffffffffffffffffffffffffffffffff82169050919050565b600063ffffffff82169050919050565b620004538162000404565b81146200045f57600080fd5b50565b6200046d8162000438565b81146200047957600080fd5b50565b613fc8806200048c6000396000f3fe6080604052600436106100ab5760003560e01c80637071396011610064578063707139601461024d578063822d82b31461027657806399da1d3c146102a1578063a31fe409146102cc578063b6694c2a14610309578063f951975a14610346576100eb565b80631a2be4da146101265780633bc0aee61461016357806342b0aefa1461018c5780634db47840146101c957806358d62e46146101f4578063600b9aa614610210576100eb565b366100eb576040517f08c379a00000000000000000000000000000000000000000000000000000000081526004016100e290613927565b60405180910390fd5b6040517f08c379a000000000000000000000000000000000000000000000000000000000815260040161011d90613927565b60405180910390fd5b34801561013257600080fd5b5061014d60048036038101906101489190612a8a565b610383565b60405161015a9190613845565b60405180910390f35b34801561016f57600080fd5b5061018a60048036038101906101859190612c06565b6103a3565b005b34801561019857600080fd5b506101b360048036038101906101ae9190612c74565b610526565b6040516101c09190613c2b565b60405180910390f35b3480156101d557600080fd5b506101de610554565b6040516101eb9190613c2b565b60405180910390f35b61020e60048036038101906102099190612bb7565b61056a565b005b34801561021c57600080fd5b5061023760048036038101906102329190612c06565b6107f0565b6040516102449190613c09565b60405180910390f35b34801561025957600080fd5b50610274600480360381019061026f9190612ab3565b611094565b005b34801561028257600080fd5b5061028b61172a565b6040516102989190613c2b565b60405180910390f35b3480156102ad57600080fd5b506102b6611740565b6040516102c39190613786565b60405180910390f35b3480156102d857600080fd5b506102f360048036038101906102ee9190612b65565b611766565b6040516103009190613845565b60405180910390f35b34801561031557600080fd5b50610330600480360381019061032b9190612b65565b611786565b60405161033d9190613786565b60405180910390f35b34801561035257600080fd5b5061036d60048036038101906103689190612c74565b6117b9565b60405161037a9190613be7565b60405180910390f35b60066020528060005260406000206000915054906101000a900460ff1681565b600260005414156103e9576040517f08c379a00000000000000000000000000000000000000000000000000000000081526004016103e090613ba7565b60405180910390fd5b60026000819055506103f961283e565b61040383836107f0565b90506001816080015160ff16141561048b57600360009054906101000a900463ffffffff1663ffffffff16816040015163ffffffff1614610479576040517f08c379a000000000000000000000000000000000000000000000000000000000815260040161047090613987565b60405180910390fd5b6104868160a001516118a6565b6104e9565b6010816080015160ff1614156104ad576104a88160a00151611b87565b6104e8565b6040517f08c379a00000000000000000000000000000000000000000000000000000000081526004016104df906138e7565b60405180910390fd5b5b6001600460008360200151815260200190815260200160002060006101000a81548160ff0219169083151502179055505060016000819055505050565b60026020528060005260406000206000915090508060010160009054906101000a900463ffffffff16905081565b600360049054906101000a900463ffffffff1681565b600260005414156105b0576040517f08c379a00000000000000000000000000000000000000000000000000000000081526004016105a790613ba7565b60405180910390fd5b6002600081905550600160149054906101000a900460ff1660ff168260ff161415610610576040517f08c379a000000000000000000000000000000000000000000000000000000000815260040161060790613a27565b60405180910390fd5b6000610629633b9aca0034611f0590919063ffffffff16565b90506000610644633b9aca0034611f5b90919063ffffffff16565b9050600081141561068a576040517f08c379a000000000000000000000000000000000000000000000000000000000815260040161068190613a87565b60405180910390fd5b3373ffffffffffffffffffffffffffffffffffffffff166108fc839081150290604051600060405180830381858888f193505050501580156106d0573d6000803e3d6000fd5b5073c02aaa39b223fe8d0a0e5c4f27ead9083c756cc273ffffffffffffffffffffffffffffffffffffffff1663d0e30db08334036040518263ffffffff1660e01b81526004016000604051808303818588803b15801561072f57600080fd5b505af1158015610743573d6000803e3d6000fd5b50505050503373ffffffffffffffffffffffffffffffffffffffff1660001b73c02aaa39b223fe8d0a0e5c4f27ead9083c756cc273ffffffffffffffffffffffffffffffffffffffff1660001b7f6bbd554ad75919f71fd91bf917ca6e4f41c10f03ab25751596a22253bb39aab886600160149054906101000a900460ff1660098a878a6040516107d996959493929190613ca6565b60405180910390a350506001600081905550505050565b6107f861283e565b610850600084848080601f016020809104026020016040519081016040528093929190818152602001838380828437600081840152601f19601f82011690508083019250505050505050611fb190919063ffffffff16565b816000019060ff16908160ff16815250506001816000015160ff16146108ab576040517f08c379a00000000000000000000000000000000000000000000000000000000081526004016108a2906139e7565b60405180910390fd5b610903600184848080601f016020809104026020016040519081016040528093929190818152602001838380828437600081840152601f19601f8201169050808301925050505050505061200f90919063ffffffff16565b816040019063ffffffff16908163ffffffff16815250506000610974600585858080601f016020809104026020016040519081016040528093929190818152602001838380828437600081840152601f19601f82011690508083019250505050505050611fb190919063ffffffff16565b60ff16905060008160420260060190506109db8186868080601f016020809104026020016040519081016040528093929190818152602001838380828437600081840152601f19601f8201169050808301925050505050505061200f90919063ffffffff16565b836060019063ffffffff16908163ffffffff1681525050610a508182878790500387878080601f016020809104026020016040519081016040528093929190818152602001838380828437600081840152601f19601f8201169050808301925050505050505061206d9092919063ffffffff16565b80519060200120836020018181525050600460008460200151815260200190815260200160002060009054906101000a900460ff1615610ac5576040517f08c379a0000000000000000000000000000000000000000000000000000000008152600401610abc90613907565b60405180910390fd5b610acd612889565b60026000856040015163ffffffff1663ffffffff16815260200190815260200160002060405180604001604052908160008201805480602002602001604051908101604052809291908181526020018280548015610b8057602002820191906000526020600020905b8160009054906101000a900473ffffffffffffffffffffffffffffffffffffffff1673ffffffffffffffffffffffffffffffffffffffff1681526020019060010190808311610b36575b505050505081526020016001820160009054906101000a900463ffffffff1663ffffffff1663ffffffff16815250509050600081600001515111610bf9576040517f08c379a0000000000000000000000000000000000000000000000000000000008152600401610bf090613bc7565b60405180910390fd5b6000816020015163ffffffff161480610c1b575042816020015163ffffffff16115b610c5a576040517f08c379a0000000000000000000000000000000000000000000000000000000008152600401610c5190613b07565b60405180910390fd5b826001600a60026003600a8660000151510281610c7357fe5b040281610c7c57fe5b04011115610cbf576040517f08c379a0000000000000000000000000000000000000000000000000000000008152600401610cb690613ac7565b60405180910390fd5b60007fffffffffffffffffffffffffffffffffffffffffffffffffffffffffffffffff905060005b84811015610fb2576000610d4e604283026006018a8a8080601f016020809104026020016040519081016040528093929190818152602001838380828437600081840152601f19601f82011690508083019250505050505050611fb190919063ffffffff16565b90508260010b8160ff1613610d98576040517f08c379a0000000000000000000000000000000000000000000000000000000008152600401610d8f90613b47565b60405180910390fd5b8060ff1692506000610dfd604284026007018b8b8080601f016020809104026020016040519081016040528093929190818152602001838380828437600081840152601f19601f8201169050808301925050505050505061212f90919063ffffffff16565b90506000610e5e604285026027018c8c8080601f016020809104026020016040519081016040528093929190818152602001838380828437600081840152601f19601f8201169050808301925050505050505061212f90919063ffffffff16565b90506000610ebf604286026047018d8d8080601f016020809104026020016040519081016040528093929190818152602001838380828437600081840152601f19601f82011690508083019250505050505050611fb190919063ffffffff16565b9050601b8101905086600001518460ff1681518110610eda57fe5b602002602001015173ffffffffffffffffffffffffffffffffffffffff1660018b6020015183868660405160008152602001604052604051610f1f9493929190613860565b6020604051602081039080840390855afa158015610f41573d6000803e3d6000fd5b5050506020604051035173ffffffffffffffffffffffffffffffffffffffff1614610fa1576040517f08c379a0000000000000000000000000000000000000000000000000000000008152600401610f9890613a47565b60405180910390fd5b505050508080600101915050610ce7565b5061100d6004840188888080601f016020809104026020016040519081016040528093929190818152602001838380828437600081840152601f19601f82011690508083019250505050505050611fb190919063ffffffff16565b856080019060ff16908160ff16815250506110826005840160058501898990500389898080601f016020809104026020016040519081016040528093929190818152602001838380828437600081840152601f19601f8201169050808301925050505050505061206d9092919063ffffffff16565b8560a001819052505050505092915050565b600260005414156110da576040517f08c379a00000000000000000000000000000000000000000000000000000000081526004016110d190613ba7565b60405180910390fd5b6002600081905550600160149054906101000a900460ff1660ff168360ff16141561113a576040517f08c379a000000000000000000000000000000000000000000000000000000000815260040161113190613a27565b60405180910390fd5b6000600160149054906101000a900460ff1690506000808873ffffffffffffffffffffffffffffffffffffffff1663313ce5676040518163ffffffff1660e01b815260040160206040518083038186803b15801561119757600080fd5b505afa1580156111ab573d6000803e3d6000fd5b505050506040513d601f19601f820116820180604052508101906111cf9190612c9d565b9050600660008a73ffffffffffffffffffffffffffffffffffffffff1673ffffffffffffffffffffffffffffffffffffffff16815260200190815260200160002060009054906101000a900460ff1615611395578873ffffffffffffffffffffffffffffffffffffffff16639dc29fac338a6040518363ffffffff1660e01b815260040161125e9291906137bc565b600060405180830381600087803b15801561127857600080fd5b505af115801561128c573d6000803e3d6000fd5b505050508873ffffffffffffffffffffffffffffffffffffffff1663026b05396040518163ffffffff1660e01b815260040160206040518083038186803b1580156112d657600080fd5b505afa1580156112ea573d6000803e3d6000fd5b505050506040513d601f19601f8201168201806040525081019061130e9190612c9d565b92508873ffffffffffffffffffffffffffffffffffffffff16631ba46cfd6040518163ffffffff1660e01b815260040160206040518083038186803b15801561135657600080fd5b505afa15801561136a573d6000803e3d6000fd5b505050506040513d601f19601f8201168201806040525081019061138e9190612b8e565b9150611677565b60008973ffffffffffffffffffffffffffffffffffffffff166370a08231306040518263ffffffff1660e01b81526004016113d091906137a1565b60206040518083038186803b1580156113e857600080fd5b505afa1580156113fc573d6000803e3d6000fd5b505050506040513d601f19601f820116820180604052508101906114209190612c4b565b905061144f33308b8d73ffffffffffffffffffffffffffffffffffffffff1661218d909392919063ffffffff16565b60008a73ffffffffffffffffffffffffffffffffffffffff166370a08231306040518263ffffffff1660e01b815260040161148a91906137a1565b60206040518083038186803b1580156114a257600080fd5b505afa1580156114b6573d6000803e3d6000fd5b505050506040513d601f19601f820116820180604052508101906114da9190612c4b565b90506114ef828261221690919063ffffffff16565b995060098360ff1611156115735760008a905061151e6009850360ff16600a0a8c611f5b90919063ffffffff16565b9a50861561156d5761156c336115466009870360ff16600a0a84611f0590919063ffffffff16565b8e73ffffffffffffffffffffffffffffffffffffffff166122669092919063ffffffff16565b5b60099350505b67ffffffffffffffff801661161760098d73ffffffffffffffffffffffffffffffffffffffff1663313ce5676040518163ffffffff1660e01b815260040160206040518083038186803b1580156115c957600080fd5b505afa1580156115dd573d6000803e3d6000fd5b505050506040513d601f19601f820116820180604052508101906116019190612c9d565b0360ff16600a0a83611f5b90919063ffffffff16565b1115611658576040517f08c379a000000000000000000000000000000000000000000000000000000000815260040161164f906138c7565b60405180910390fd5b8a73ffffffffffffffffffffffffffffffffffffffff1660001b935050505b60008814156116bb576040517f08c379a00000000000000000000000000000000000000000000000000000000081526004016116b290613a87565b60405180910390fd5b3373ffffffffffffffffffffffffffffffffffffffff1660001b827f6bbd554ad75919f71fd91bf917ca6e4f41c10f03ab25751596a22253bb39aab88886858c8e8c60405161170f96959493929190613d07565b60405180910390a35050506001600081905550505050505050565b600360009054906101000a900463ffffffff1681565b600160009054906101000a900473ffffffffffffffffffffffffffffffffffffffff1681565b60046020528060005260406000206000915054906101000a900460ff1681565b60056020528060005260406000206000915054906101000a900473ffffffffffffffffffffffffffffffffffffffff1681565b6117c1612889565b600260008363ffffffff1663ffffffff1681526020019081526020016000206040518060400160405290816000820180548060200260200160405190810160405280929190818152602001828054801561187057602002820191906000526020600020905b8160009054906101000a900473ffffffffffffffffffffffffffffffffffffffff1673ffffffffffffffffffffffffffffffffffffffff1681526020019060010190808311611826575b505050505081526020016001820160009054906101000a900463ffffffff1663ffffffff1663ffffffff16815250509050919050565b60006118bc60008361200f90919063ffffffff16565b90506001600360009054906101000a900463ffffffff160163ffffffff168163ffffffff1614611921576040517f08c379a000000000000000000000000000000000000000000000000000000000815260040161191890613aa7565b60405180910390fd5b6000611937600484611fb190919063ffffffff16565b905060608160ff1667ffffffffffffffff8111801561195557600080fd5b506040519080825280602002602001820160405280156119845781602001602082028036833780820191505090505b50905060005b8260ff16811015611a075760006119b060148302600501876122ec90919063ffffffff16565b9050808383815181106119bf57fe5b602002602001019073ffffffffffffffffffffffffffffffffffffffff16908173ffffffffffffffffffffffffffffffffffffffff168152505050808060010191505061198a565b506000600360009054906101000a900463ffffffff16905083600360006101000a81548163ffffffff021916908363ffffffff160217905550611a48612889565b6040518060400160405280848152602001600063ffffffff1681525090508060026000600360009054906101000a900463ffffffff1663ffffffff1663ffffffff1681526020019081526020016000206000820151816000019080519060200190611ab49291906128a9565b5060208201518160010160006101000a81548163ffffffff021916908363ffffffff160217905550905050600360049054906101000a900463ffffffff164201600260008463ffffffff1663ffffffff16815260200190815260200160002060010160006101000a81548163ffffffff021916908363ffffffff1602179055507fdfb80683934199683861bf00b64ecdf0984bbaf661bf27983dba382e99297a6282600360009054906101000a900463ffffffff16604051611b77929190613c46565b60405180910390a1505050505050565b6000611b9d600483611fb190919063ffffffff16565b90506000611bb5600584611fb190919063ffffffff16565b90506000611bcd6032856122ec90919063ffffffff16565b90506000611be5604686611fb190919063ffffffff16565b90506000611bfd60688761235990919063ffffffff16565b90508360ff168560ff161415611c48576040517f08c379a0000000000000000000000000000000000000000000000000000000008152600401611c3f90613b87565b60405180910390fd5b600160149054906101000a900460ff1660ff168460ff1614611c9f576040517f08c379a0000000000000000000000000000000000000000000000000000000008152600401611c9690613ae7565b60405180910390fd5b600160149054906101000a900460ff1660ff168260ff1614611e0a576000611cd160478861212f90919063ffffffff16565b905060008382604051602001611ce892919061375a565b60405160208183030381529060405280519060200120905060006005600083815260200190815260200160002060009054906101000a900473ffffffffffffffffffffffffffffffffffffffff169050600073ffffffffffffffffffffffffffffffffffffffff168173ffffffffffffffffffffffffffffffffffffffff161415611d95576000611d8360678b611fb190919063ffffffff16565b9050611d91838786846123b7565b9150505b8073ffffffffffffffffffffffffffffffffffffffff166340c10f1987866040518363ffffffff1660e01b8152600401611dd092919061381c565b600060405180830381600087803b158015611dea57600080fd5b505af1158015611dfe573d6000803e3d6000fd5b50505050505050611efd565b6000611e206053886122ec90919063ffffffff16565b905060008173ffffffffffffffffffffffffffffffffffffffff1663313ce5676040518163ffffffff1660e01b815260040160206040518083038186803b158015611e6a57600080fd5b505afa158015611e7e573d6000803e3d6000fd5b505050506040513d601f19601f82011682018060405250810190611ea29190612c9d565b905060098160ff161115611ecf57611ecc6009820360ff16600a0a8461256090919063ffffffff16565b92505b611efa85848473ffffffffffffffffffffffffffffffffffffffff166122669092919063ffffffff16565b50505b505050505050565b6000808211611f49576040517f08c379a0000000000000000000000000000000000000000000000000000000008152600401611f4090613a07565b60405180910390fd5b818381611f5257fe5b06905092915050565b6000808211611f9f576040517f08c379a0000000000000000000000000000000000000000000000000000000008152600401611f96906139a7565b60405180910390fd5b818381611fa857fe5b04905092915050565b60006001820183511015611ffa576040517f08c379a0000000000000000000000000000000000000000000000000000000008152600401611ff1906139c7565b60405180910390fd5b60008260018501015190508091505092915050565b60006004820183511015612058576040517f08c379a000000000000000000000000000000000000000000000000000000000815260040161204f906139c7565b60405180910390fd5b60008260048501015190508091505092915050565b6060818301845110156120b5576040517f08c379a00000000000000000000000000000000000000000000000000000000081526004016120ac906139c7565b60405180910390fd5b60608215600081146120d257604051915060208201604052612123565b6040519150601f8416801560200281840101858101878315602002848b0101015b8183101561211057805183526020830192506020810190506120f3565b50868552601f19601f8301166040525050505b50809150509392505050565b60006020820183511015612178576040517f08c379a000000000000000000000000000000000000000000000000000000000815260040161216f906139c7565b60405180910390fd5b60008260208501015190508091505092915050565b612210846323b872dd60e01b8585856040516024016121ae939291906137e5565b604051602081830303815290604052907bffffffffffffffffffffffffffffffffffffffffffffffffffffffff19166020820180517bffffffffffffffffffffffffffffffffffffffffffffffffffffffff83818316178352505050506125d0565b50505050565b60008282111561225b576040517f08c379a000000000000000000000000000000000000000000000000000000000815260040161225290613947565b60405180910390fd5b818303905092915050565b6122e78363a9059cbb60e01b848460405160240161228592919061381c565b604051602081830303815290604052907bffffffffffffffffffffffffffffffffffffffffffffffffffffffff19166020820180517bffffffffffffffffffffffffffffffffffffffffffffffffffffffff83818316178352505050506125d0565b505050565b60006014820183511015612335576040517f08c379a000000000000000000000000000000000000000000000000000000000815260040161232c906139c7565b60405180910390fd5b60006c01000000000000000000000000836020860101510490508091505092915050565b600060208201835110156123a2576040517f08c379a0000000000000000000000000000000000000000000000000000000008152600401612399906139c7565b60405180910390fd5b60008260208501015190508091505092915050565b600080600160009054906101000a900473ffffffffffffffffffffffffffffffffffffffff1660601b90506040517f3d602d80600a3d3981f3363d3d373d3d3d363d7300000000000000000000000081528160148201527f5af43d82803e903d91602b57fd5bf300000000000000000000000000000000006028820152866037826000f59250508173ffffffffffffffffffffffffffffffffffffffff1663a7a2d3fb8686866040518463ffffffff1660e01b815260040161247b93929190613c6f565b600060405180830381600087803b15801561249557600080fd5b505af11580156124a9573d6000803e3d6000fd5b50505050816005600088815260200190815260200160002060006101000a81548173ffffffffffffffffffffffffffffffffffffffff021916908373ffffffffffffffffffffffffffffffffffffffff1602179055506001600660008473ffffffffffffffffffffffffffffffffffffffff1673ffffffffffffffffffffffffffffffffffffffff16815260200190815260200160002060006101000a81548160ff02191690831515021790555050949350505050565b60008083141561257357600090506125ca565b600082840290508284828161258457fe5b04146125c5576040517f08c379a00000000000000000000000000000000000000000000000000000000081526004016125bc90613a67565b60405180910390fd5b809150505b92915050565b6060612632826040518060400160405280602081526020017f5361666545524332303a206c6f772d6c6576656c2063616c6c206661696c65648152508573ffffffffffffffffffffffffffffffffffffffff166126979092919063ffffffff16565b905060008151111561269257808060200190518101906126529190612b3c565b612691576040517f08c379a000000000000000000000000000000000000000000000000000000000815260040161268890613b67565b60405180910390fd5b5b505050565b60606126a684846000856126af565b90509392505050565b6060824710156126f4576040517f08c379a00000000000000000000000000000000000000000000000000000000081526004016126eb90613967565b60405180910390fd5b6126fd856127c4565b61273c576040517f08c379a000000000000000000000000000000000000000000000000000000000815260040161273390613b27565b60405180910390fd5b600060608673ffffffffffffffffffffffffffffffffffffffff1685876040516127669190613743565b60006040518083038185875af1925050503d80600081146127a3576040519150601f19603f3d011682016040523d82523d6000602084013e6127a8565b606091505b50915091506127b88282866127d7565b92505050949350505050565b600080823b905060008111915050919050565b606083156127e757829050612837565b6000835111156127fa5782518084602001fd5b816040517f08c379a000000000000000000000000000000000000000000000000000000000815260040161282e91906138a5565b60405180910390fd5b9392505050565b6040518060c00160405280600060ff16815260200160008019168152602001600063ffffffff168152602001600063ffffffff168152602001600060ff168152602001606081525090565b604051806040016040528060608152602001600063ffffffff1681525090565b828054828255906000526020600020908101928215612922579160200282015b828111156129215782518260006101000a81548173ffffffffffffffffffffffffffffffffffffffff021916908373ffffffffffffffffffffffffffffffffffffffff160217905550916020019190600101906128c9565b5b50905061292f9190612933565b5090565b5b8082111561296a57600081816101000a81549073ffffffffffffffffffffffffffffffffffffffff021916905550600101612934565b5090565b60008135905061297d81613f08565b92915050565b60008135905061299281613f1f565b92915050565b6000815190506129a781613f1f565b92915050565b6000813590506129bc81613f36565b92915050565b6000815190506129d181613f36565b92915050565b60008083601f8401126129e957600080fd5b8235905067ffffffffffffffff811115612a0257600080fd5b602083019150836001820283011115612a1a57600080fd5b9250929050565b600081359050612a3081613f4d565b92915050565b600081519050612a4581613f4d565b92915050565b600081359050612a5a81613f64565b92915050565b600081359050612a6f81613f7b565b92915050565b600081519050612a8481613f7b565b92915050565b600060208284031215612a9c57600080fd5b6000612aaa8482850161296e565b91505092915050565b60008060008060008060c08789031215612acc57600080fd5b6000612ada89828a0161296e565b9650506020612aeb89828a01612a21565b9550506040612afc89828a016129ad565b9450506060612b0d89828a01612a60565b9350506080612b1e89828a01612a4b565b92505060a0612b2f89828a01612983565b9150509295509295509295565b600060208284031215612b4e57600080fd5b6000612b5c84828501612998565b91505092915050565b600060208284031215612b7757600080fd5b6000612b85848285016129ad565b91505092915050565b600060208284031215612ba057600080fd5b6000612bae848285016129c2565b91505092915050565b600080600060608486031215612bcc57600080fd5b6000612bda868287016129ad565b9350506020612beb86828701612a60565b9250506040612bfc86828701612a4b565b9150509250925092565b60008060208385031215612c1957600080fd5b600083013567ffffffffffffffff811115612c3357600080fd5b612c3f858286016129d7565b92509250509250929050565b600060208284031215612c5d57600080fd5b6000612c6b84828501612a36565b91505092915050565b600060208284031215612c8657600080fd5b6000612c9484828501612a4b565b91505092915050565b600060208284031215612caf57600080fd5b6000612cbd84828501612a75565b91505092915050565b6000612cd28383612ced565b60208301905092915050565b612ce781613e53565b82525050565b612cf681613de4565b82525050565b612d0581613de4565b82525050565b6000612d1682613d78565b612d208185613da6565b9350612d2b83613d68565b8060005b83811015612d5c578151612d438882612cc6565b9750612d4e83613d99565b925050600181019050612d2f565b5085935050505092915050565b612d7281613df6565b82525050565b612d8181613e02565b82525050565b612d9081613e02565b82525050565b612da7612da282613e02565b613ece565b82525050565b6000612db882613d83565b612dc28185613db7565b9350612dd2818560208601613e9b565b612ddb81613eea565b840191505092915050565b6000612df182613d83565b612dfb8185613dc8565b9350612e0b818560208601613e9b565b80840191505092915050565b612e2081613e65565b82525050565b6000612e3182613d8e565b612e3b8185613dd3565b9350612e4b818560208601613e9b565b612e5481613eea565b840191505092915050565b6000612e6c602383613dd3565b91507f6272696467652062616c616e636520776f756c6420657863656564206d61786960008301527f6d756d00000000000000000000000000000000000000000000000000000000006020830152604082019050919050565b6000612ed2601283613dd3565b91507f696e76616c69642056414120616374696f6e00000000000000000000000000006000830152602082019050919050565b6000612f12601883613dd3565b91507f5641412077617320616c726561647920657865637574656400000000000000006000830152602082019050919050565b6000612f52602c83613dd3565b91507f706c6561736520757365206c6f636b45544820746f207472616e73666572204560008301527f544820746f20536f6c616e6100000000000000000000000000000000000000006020830152604082019050919050565b6000612fb8601e83613dd3565b91507f536166654d6174683a207375627472616374696f6e206f766572666c6f7700006000830152602082019050919050565b6000612ff8602683613dd3565b91507f416464726573733a20696e73756666696369656e742062616c616e636520666f60008301527f722063616c6c00000000000000000000000000000000000000000000000000006020830152604082019050919050565b600061305e603983613dd3565b91507f6f6e6c79207468652063757272656e7420677561726469616e2073657420636160008301527f6e206368616e67652074686520677561726469616e20736574000000000000006020830152604082019050919050565b60006130c4601a83613dd3565b91507f536166654d6174683a206469766973696f6e206279207a65726f0000000000006000830152602082019050919050565b6000613104601283613dd3565b91507f52656164206f7574206f6620626f756e647300000000000000000000000000006000830152602082019050919050565b6000613144601883613dd3565b91507f5641412076657273696f6e20696e636f6d70617469626c6500000000000000006000830152602082019050919050565b6000613184601883613dd3565b91507f536166654d6174683a206d6f64756c6f206279207a65726f00000000000000006000830152602082019050919050565b60006131c4602383613dd3565b91507f6d757374206e6f74207472616e7366657220746f207468652073616d6520636860008301527f61696e00000000000000000000000000000000000000000000000000000000006020830152604082019050919050565b600061322a601583613dd3565b91507f564141207369676e617475726520696e76616c696400000000000000000000006000830152602082019050919050565b600061326a602183613dd3565b91507f536166654d6174683a206d756c7469706c69636174696f6e206f766572666c6f60008301527f77000000000000000000000000000000000000000000000000000000000000006020830152604082019050919050565b60006132d0601e83613dd3565b91507f7472756e636174656420616d6f756e74206d757374206e6f74206265203000006000830152602082019050919050565b6000613310602183613dd3565b91507f696e646578206d75737420696e63726561736520696e207374657073206f662060008301527f31000000000000000000000000000000000000000000000000000000000000006020830152604082019050919050565b6000613376600983613dd3565b91507f6e6f2071756f72756d00000000000000000000000000000000000000000000006000830152602082019050919050565b60006133b6601983613dd3565b91507f7472616e73666572206d75737420626520696e636f6d696e67000000000000006000830152602082019050919050565b60006133f6601883613dd3565b91507f677561726469616e2073657420686173206578706972656400000000000000006000830152602082019050919050565b6000613436601d83613dd3565b91507f416464726573733a2063616c6c20746f206e6f6e2d636f6e74726163740000006000830152602082019050919050565b6000613476602383613dd3565b91507f7369676e617475726520696e6469636573206d75737420626520617363656e6460008301527f696e6700000000000000000000000000000000000000000000000000000000006020830152604082019050919050565b60006134dc602a83613dd3565b91507f5361666545524332303a204552433230206f7065726174696f6e20646964206e60008301527f6f742073756363656564000000000000000000000000000000000000000000006020830152604082019050919050565b6000613542602683613dd3565b91507f73616d6520636861696e207472616e736665727320617265206e6f742073757060008301527f706f7274656400000000000000000000000000000000000000000000000000006020830152604082019050919050565b60006135a8601f83613dd3565b91507f5265656e7472616e637947756172643a207265656e7472616e742063616c6c006000830152602082019050919050565b60006135e8601483613dd3565b91507f696e76616c696420677561726469616e207365740000000000000000000000006000830152602082019050919050565b600060408301600083015184820360008601526136388282612d0b565b915050602083015161364d60208601826136f0565b508091505092915050565b600060c083016000830151613670600086018261370e565b5060208301516136836020860182612d78565b50604083015161369660408601826136f0565b5060608301516136a960608601826136f0565b5060808301516136bc608086018261370e565b5060a083015184820360a08601526136d48282612dad565b9150508091505092915050565b6136ea81613e2c565b82525050565b6136f981613e36565b82525050565b61370881613e36565b82525050565b61371781613e46565b82525050565b61372681613e46565b82525050565b61373d61373882613e46565b613ed8565b82525050565b600061374f8284612de6565b915081905092915050565b6000613766828561372c565b6001820191506137768284612d96565b6020820191508190509392505050565b600060208201905061379b6000830184612cfc565b92915050565b60006020820190506137b66000830184612cde565b92915050565b60006040820190506137d16000830185612cde565b6137de60208301846136e1565b9392505050565b60006060820190506137fa6000830186612cfc565b6138076020830185612cfc565b61381460408301846136e1565b949350505050565b60006040820190506138316000830185612cfc565b61383e60208301846136e1565b9392505050565b600060208201905061385a6000830184612d69565b92915050565b60006080820190506138756000830187612d87565b613882602083018661371d565b61388f6040830185612d87565b61389c6060830184612d87565b95945050505050565b600060208201905081810360008301526138bf8184612e26565b905092915050565b600060208201905081810360008301526138e081612e5f565b9050919050565b6000602082019050818103600083015261390081612ec5565b9050919050565b6000602082019050818103600083015261392081612f05565b9050919050565b6000602082019050818103600083015261394081612f45565b9050919050565b6000602082019050818103600083015261396081612fab565b9050919050565b6000602082019050818103600083015261398081612feb565b9050919050565b600060208201905081810360008301526139a081613051565b9050919050565b600060208201905081810360008301526139c0816130b7565b9050919050565b600060208201905081810360008301526139e0816130f7565b9050919050565b60006020820190508181036000830152613a0081613137565b9050919050565b60006020820190508181036000830152613a2081613177565b9050919050565b60006020820190508181036000830152613a40816131b7565b9050919050565b60006020820190508181036000830152613a608161321d565b9050919050565b60006020820190508181036000830152613a808161325d565b9050919050565b60006020820190508181036000830152613aa0816132c3565b9050919050565b60006020820190508181036000830152613ac081613303565b9050919050565b60006020820190508181036000830152613ae081613369565b9050919050565b60006020820190508181036000830152613b00816133a9565b9050919050565b60006020820190508181036000830152613b20816133e9565b9050919050565b60006020820190508181036000830152613b4081613429565b9050919050565b60006020820190508181036000830152613b6081613469565b9050919050565b60006020820190508181036000830152613b80816134cf565b9050919050565b60006020820190508181036000830152613ba081613535565b9050919050565b60006020820190508181036000830152613bc08161359b565b9050919050565b60006020820190508181036000830152613be0816135db565b9050919050565b60006020820190508181036000830152613c01818461361b565b905092915050565b60006020820190508181036000830152613c238184613658565b905092915050565b6000602082019050613c4060008301846136ff565b92915050565b6000604082019050613c5b60008301856136ff565b613c6860208301846136ff565b9392505050565b6000606082019050613c84600083018661371d565b613c916020830185612d87565b613c9e604083018461371d565b949350505050565b600060c082019050613cbb600083018961371d565b613cc8602083018861371d565b613cd56040830187612e17565b613ce26060830186612d87565b613cef60808301856136e1565b613cfc60a08301846136ff565b979650505050505050565b600060c082019050613d1c600083018961371d565b613d29602083018861371d565b613d36604083018761371d565b613d436060830186612d87565b613d5060808301856136e1565b613d5d60a08301846136ff565b979650505050505050565b6000819050602082019050919050565b600081519050919050565b600081519050919050565b600081519050919050565b6000602082019050919050565b600082825260208201905092915050565b600082825260208201905092915050565b600081905092915050565b600082825260208201905092915050565b6000613def82613e0c565b9050919050565b60008115159050919050565b6000819050919050565b600073ffffffffffffffffffffffffffffffffffffffff82169050919050565b6000819050919050565b600063ffffffff82169050919050565b600060ff82169050919050565b6000613e5e82613e77565b9050919050565b6000613e7082613e46565b9050919050565b6000613e8282613e89565b9050919050565b6000613e9482613e0c565b9050919050565b60005b83811015613eb9578082015181840152602081019050613e9e565b83811115613ec8576000848401525b50505050565b6000819050919050565b6000613ee382613efb565b9050919050565b6000601f19601f8301169050919050565b60008160f81b9050919050565b613f1181613de4565b8114613f1c57600080fd5b50565b613f2881613df6565b8114613f3357600080fd5b50565b613f3f81613e02565b8114613f4a57600080fd5b50565b613f5681613e2c565b8114613f6157600080fd5b50565b613f6d81613e36565b8114613f7857600080fd5b50565b613f8481613e46565b8114613f8f57600080fd5b5056fea2646970667358221220be6268c55fc12db2a6d48a837359a790ca4e234bc0d1c3c7914a3dcb9598614464736f6c634300060c0033",
  "immutableReferences": {},
  "source": "// contracts/Wormhole.sol\n// SPDX-License-Identifier: Apache 2\n\npragma solidity ^0.6.0;\npragma experimental ABIEncoderV2;\n\nimport \"@openzeppelin/contracts/token/ERC20/ERC20.sol\";\nimport \"@openzeppelin/contracts/token/ERC20/IERC20.sol\";\nimport \"@openzeppelin/contracts/token/ERC20/SafeERC20.sol\";\nimport \"@openzeppelin/contracts/math/SafeMath.sol\";\nimport \"@openzeppelin/contracts/utils/ReentrancyGuard.sol\";\nimport \"./BytesLib.sol\";\nimport \"./WrappedAsset.sol\";\n\ncontract Wormhole is ReentrancyGuard {\n    using SafeERC20 for IERC20;\n    using BytesLib for bytes;\n    using SafeMath for uint256;\n\n    uint64 constant MAX_UINT64 = 18_446_744_073_709_551_615;\n\n    // Address of the Wrapped asset template\n    address public wrappedAssetMaster;\n\n    // Chain ID of Ethereum\n    uint8 CHAIN_ID = 2;\n\n    // Address of the official WETH contract\n    address constant WETHAddress = 0xC02aaA39b223FE8D0A0e5C4F27eAD9083C756Cc2;\n\n    struct GuardianSet {\n        address[] keys;\n        uint32 expiration_time;\n    }\n\n    event LogGuardianSetChanged(\n        uint32 oldGuardianIndex,\n        uint32 newGuardianIndex\n    );\n\n    event LogTokensLocked(\n        uint8 target_chain,\n        uint8 token_chain,\n        uint8 token_decimals,\n        bytes32 indexed token,\n        bytes32 indexed sender,\n        bytes32 recipient,\n        uint256 amount,\n        uint32 nonce\n    );\n\n    struct ParsedVAA {\n        uint8 version;\n        bytes32 hash;\n        uint32 guardian_set_index;\n        uint32 timestamp;\n        uint8 action;\n        bytes payload;\n    }\n\n    // Mapping of guardian_set_index => guardian set\n    mapping(uint32 => GuardianSet) public guardian_sets;\n    // Current active guardian set\n    uint32 public guardian_set_index;\n\n    // Period for which a guardian set stays active after it has been replaced\n    uint32 public guardian_set_expirity;\n\n    // Mapping of already consumedVAAs\n    mapping(bytes32 => bool) public consumedVAAs;\n\n    // Mapping of wrapped asset ERC20 contracts\n    mapping(bytes32 => address) public wrappedAssets;\n    mapping(address => bool) public isWrappedAsset;\n\n    constructor(GuardianSet memory initial_guardian_set, address wrapped_asset_master, uint32 _guardian_set_expirity) public {\n        guardian_sets[0] = initial_guardian_set;\n        // Explicitly set for doc purposes\n        guardian_set_index = 0;\n        guardian_set_expirity = _guardian_set_expirity;\n\n        wrappedAssetMaster = wrapped_asset_master;\n    }\n\n    function getGuardianSet(uint32 idx) view public returns (GuardianSet memory gs) {\n        return guardian_sets[idx];\n    }\n\n    function submitVAA(\n        bytes calldata vaa\n    ) public nonReentrant {\n        ParsedVAA memory parsed_vaa = parseAndVerifyVAA(vaa);\n        // Process VAA\n        if (parsed_vaa.action == 0x01) {\n            require(parsed_vaa.guardian_set_index == guardian_set_index, \"only the current guardian set can change the guardian set\");\n            vaaUpdateGuardianSet(parsed_vaa.payload);\n        } else if (parsed_vaa.action == 0x10) {\n            vaaTransfer(parsed_vaa.payload);\n        } else {\n            revert(\"invalid VAA action\");\n        }\n\n        // Set the VAA as consumed\n        consumedVAAs[parsed_vaa.hash] = true;\n    }\n\n    // parseAndVerifyVAA parses raw VAA data into a struct and verifies whether it contains sufficient signatures of an\n    // active guardian set i.e. is valid according to Wormhole consensus rules.\n    function parseAndVerifyVAA(bytes calldata vaa) public view returns (ParsedVAA memory parsed_vaa) {\n        parsed_vaa.version = vaa.toUint8(0);\n        require(parsed_vaa.version == 1, \"VAA version incompatible\");\n\n        // Load 4 bytes starting from index 1\n        parsed_vaa.guardian_set_index = vaa.toUint32(1);\n\n        uint256 len_signers = vaa.toUint8(5);\n        uint offset = 6 + 66 * len_signers;\n\n        // Load 4 bytes timestamp\n        parsed_vaa.timestamp = vaa.toUint32(offset);\n\n        // Hash the body\n        parsed_vaa.hash = keccak256(vaa.slice(offset, vaa.length - offset));\n        require(!consumedVAAs[parsed_vaa.hash], \"VAA was already executed\");\n\n        GuardianSet memory guardian_set = guardian_sets[parsed_vaa.guardian_set_index];\n        require(guardian_set.keys.length > 0, \"invalid guardian set\");\n        require(guardian_set.expiration_time == 0 || guardian_set.expiration_time > block.timestamp, \"guardian set has expired\");\n        // We're using a fixed point number transformation with 1 decimal to deal with rounding.\n        require(((guardian_set.keys.length * 10 / 3) * 2) / 10 + 1 <= len_signers, \"no quorum\");\n\n        int16 last_index = - 1;\n        for (uint i = 0; i < len_signers; i++) {\n            uint8 index = vaa.toUint8(6 + i * 66);\n            require(index > last_index, \"signature indices must be ascending\");\n            last_index = int16(index);\n\n            bytes32 r = vaa.toBytes32(7 + i * 66);\n            bytes32 s = vaa.toBytes32(39 + i * 66);\n            uint8 v = vaa.toUint8(71 + i * 66);\n            v += 27;\n            require(ecrecover(parsed_vaa.hash, v, r, s) == guardian_set.keys[index], \"VAA signature invalid\");\n        }\n\n        parsed_vaa.action = vaa.toUint8(offset + 4);\n        parsed_vaa.payload = vaa.slice(offset + 5, vaa.length - (offset + 5));\n    }\n\n    function vaaUpdateGuardianSet(bytes memory data) private {\n        uint32 new_guardian_set_index = data.toUint32(0);\n        require(new_guardian_set_index == guardian_set_index + 1, \"index must increase in steps of 1\");\n        uint8 len = data.toUint8(4);\n\n        address[] memory new_guardians = new address[](len);\n        for (uint i = 0; i < len; i++) {\n            address addr = data.toAddress(5 + i * 20);\n            new_guardians[i] = addr;\n        }\n\n        uint32 old_guardian_set_index = guardian_set_index;\n        guardian_set_index = new_guardian_set_index;\n\n        GuardianSet memory new_guardian_set = GuardianSet(new_guardians, 0);\n        guardian_sets[guardian_set_index] = new_guardian_set;\n        guardian_sets[old_guardian_set_index].expiration_time = uint32(block.timestamp) + guardian_set_expirity;\n\n        emit LogGuardianSetChanged(old_guardian_set_index, guardian_set_index);\n    }\n\n    function vaaTransfer(bytes memory data) private {\n        //uint32 nonce = data.toUint64(0);\n        uint8 source_chain = data.toUint8(4);\n\n        uint8 target_chain = data.toUint8(5);\n        //bytes32 source_address = data.toBytes32(6);\n        //bytes32 target_address = data.toBytes32(38);\n        address target_address = data.toAddress(38 + 12);\n\n        uint8 token_chain = data.toUint8(70);\n        //bytes32 token_address = data.toBytes32(71);\n        uint256 amount = data.toUint256(104);\n\n        require(source_chain != target_chain, \"same chain transfers are not supported\");\n        require(target_chain == CHAIN_ID, \"transfer must be incoming\");\n\n        if (token_chain != CHAIN_ID) {\n            bytes32 token_address = data.toBytes32(71);\n            bytes32 asset_id = keccak256(abi.encodePacked(token_chain, token_address));\n\n            // if yes: mint to address\n            // if no: create and mint\n            address wrapped_asset = wrappedAssets[asset_id];\n            if (wrapped_asset == address(0)) {\n                uint8 asset_decimals = data.toUint8(103);\n                wrapped_asset = deployWrappedAsset(asset_id, token_chain, token_address, asset_decimals);\n            }\n\n            WrappedAsset(wrapped_asset).mint(target_address, amount);\n        } else {\n            address token_address = data.toAddress(71 + 12);\n\n            uint8 decimals = ERC20(token_address).decimals();\n\n            // Readjust decimals if they've previously been truncated\n            if (decimals > 9) {\n                amount = amount.mul(10 ** uint256(decimals - 9));\n            }\n            IERC20(token_address).safeTransfer(target_address, amount);\n        }\n    }\n\n    function deployWrappedAsset(bytes32 seed, uint8 token_chain, bytes32 token_address, uint8 decimals) private returns (address asset){\n        // Taken from https://github.com/OpenZeppelin/openzeppelin-sdk/blob/master/packages/lib/contracts/upgradeability/ProxyFactory.sol\n        // Licensed under MIT\n        bytes20 targetBytes = bytes20(wrappedAssetMaster);\n        assembly {\n            let clone := mload(0x40)\n            mstore(clone, 0x3d602d80600a3d3981f3363d3d373d3d3d363d73000000000000000000000000)\n            mstore(add(clone, 0x14), targetBytes)\n            mstore(add(clone, 0x28), 0x5af43d82803e903d91602b57fd5bf30000000000000000000000000000000000)\n            asset := create2(0, clone, 0x37, seed)\n        }\n\n        // Call initializer\n        WrappedAsset(asset).initialize(token_chain, token_address, decimals);\n\n        // Store address\n        wrappedAssets[seed] = asset;\n        isWrappedAsset[asset] = true;\n    }\n\n    function lockAssets(\n        address asset,\n        uint256 amount,\n        bytes32 recipient,\n        uint8 target_chain,\n        uint32 nonce,\n        bool refund_dust\n    ) public nonReentrant {\n        require(target_chain != CHAIN_ID, \"must not transfer to the same chain\");\n\n        uint8 asset_chain = CHAIN_ID;\n        bytes32 asset_address;\n        uint8 decimals = ERC20(asset).decimals();\n\n        if (isWrappedAsset[asset]) {\n            WrappedAsset(asset).burn(msg.sender, amount);\n            asset_chain = WrappedAsset(asset).assetChain();\n            asset_address = WrappedAsset(asset).assetAddress();\n        } else {\n            uint256 balanceBefore = IERC20(asset).balanceOf(address(this));\n            IERC20(asset).safeTransferFrom(msg.sender, address(this), amount);\n            uint256 balanceAfter = IERC20(asset).balanceOf(address(this));\n\n            // The amount that was transferred in is the delta between balance before and after the transfer.\n            // This is to properly handle tokens that charge a fee on transfer.\n            amount = balanceAfter.sub(balanceBefore);\n\n            // Decimal adjust amount - we keep the dust\n            if (decimals > 9) {\n                uint256 original_amount = amount;\n                amount = amount.div(10 ** uint256(decimals - 9));\n\n                if (refund_dust) {\n                    IERC20(asset).safeTransfer(msg.sender, original_amount.mod(10 ** uint256(decimals - 9)));\n                }\n\n                decimals = 9;\n            }\n\n            require(balanceAfter.div(10 ** uint256(ERC20(asset).decimals() - 9)) <= MAX_UINT64, \"bridge balance would exceed maximum\");\n\n            asset_address = bytes32(uint256(asset));\n        }\n\n        // Check here after truncation\n        require(amount != 0, \"truncated amount must not be 0\");\n\n        emit LogTokensLocked(target_chain, asset_chain, decimals, asset_address, bytes32(uint256(msg.sender)), recipient, amount, nonce);\n    }\n\n    function lockETH(\n        bytes32 recipient,\n        uint8 target_chain,\n        uint32 nonce\n    ) public payable nonReentrant {\n        require(target_chain != CHAIN_ID, \"must not transfer to the same chain\");\n\n        uint256 remainder = msg.value.mod(10 ** 9);\n        uint256 transfer_amount = msg.value.div(10 ** 9);\n        require(transfer_amount != 0, \"truncated amount must not be 0\");\n\n        // Transfer back remainder\n        msg.sender.transfer(remainder);\n\n        // Wrap tx value in WETH\n        WETH(WETHAddress).deposit{value : msg.value - remainder}();\n\n        // Log deposit of WETH\n        emit LogTokensLocked(target_chain, CHAIN_ID, 9, bytes32(uint256(WETHAddress)), bytes32(uint256(msg.sender)), recipient, transfer_amount, nonce);\n    }\n\n    fallback() external payable {revert(\"please use lockETH to transfer ETH to Solana\");}\n\n    receive() external payable {revert(\"please use lockETH to transfer ETH to Solana\");}\n}\n\n\ninterface WETH is IERC20 {\n    function deposit() external payable;\n\n    function withdraw(uint256 amount) external;\n}\n",
  "sourcePath": "/Users/bartosz.lipinski/Workspace/wormhole/ethereum/contracts/Wormhole.sol",
  "compiler": {
    "name": "solc",
    "version": "0.6.12+commit.27d51765.Emscripten.clang"
  },
  "schemaVersion": "3.3.4",
  "updatedAt": "2021-04-12T21:53:29.885Z",
  "devdoc": {
    "kind": "dev",
    "methods": {},
    "version": 1
  },
  "userdoc": {
    "kind": "user",
    "methods": {},
    "version": 1
  }
}